---
title: 클레이튼맛 Geth의 데이터 살펴보기
date: "2024-03-31T14:58:18.670Z"
description: "그래서 실제로 저장되는 데이터는 어떻게 생겼나요?"
category: blockchain
draft: false
---

# 시리즈
> 해당 시리즈는 [Klaytn Dev Ambassador](https://medium.com/klaytn-kr/klaytn%EC%9D%98-%EC%83%88%EB%A1%9C%EC%9B%8C%EC%A7%84-klaytn-ambassador-%ED%94%84%EB%A1%9C%EA%B7%B8%EB%9E%A8%EC%9D%84-%EC%86%8C%EA%B0%9C%ED%95%A9%EB%8B%88%EB%8B%A4-f654df403123) Core Development Project 과정 학습 내용을 공유하기 위한 목적으로 작성하였습니다. 

1. [클레이튼맛 Geth의 데이터베이스 얕게 훑어보기](/blockchain/klaytn-geth-db-manager/)
2. 클레이튼맛 Geth의 데이터 분석하기


# 목차
- 들어가며
- Genesis Setup Data 분석
- Transaction Broadcast Data 분석
- 마치며

# 들어가며 

```
[key, value]
```

이전 글에서 Klaytn Geth의 데이터는 위와 같은 구조의 반복이라고 설명했다. 해당 글에선 실제 저장되는 데이터를 살펴보겠다.


모든 과정은 [klaytn-geth-db-analysis](https://github.com/junha-ahn/klaytn-geth-db-analysis)를 통해 재현 가능하다.

# Genesis Setup Data 분석
> [0_genesis_setup.txt](https://github.com/junha-ahn/klaytn-geth-db-analysis/blob/main/extract/0_genesis_setup.txt)

![Commit](./images/Commit.png) 

Genesis 블록은 위 과정을 통해 만들어집니다.

### 359. `g.ToBlock(baseStateRoot, db)`

```go
block := g.ToBlock(baseStateRoot, db)
``` 

위 함수를 통해 `chaindata/statetrie`가 생성됩니다.

### 363. `db.WriteTd(block.Hash(), block.NumberU64(), g.BlockScore)`

```go
[680000000000000000f484ef9414585f80efa4918c1d43859073556022a6394da54d4e86b5b485cf4a74, 01]

db.WriteTd(block.Hash(), block.NumberU64(), g.BlockScore)
- [key] headerTDKey(genesisBlockNum, genesisBlockHash)
```


```go
// headerTDKey = headerPrefix + num (uint64 big endian) + hash + headerTDSuffix
func headerTDKey(number uint64, hash common.Hash) []byte {
	return append(headerKey(number, hash), headerTDSuffix...)
}
```
> [storage/database/schema.go](https://github.com/klaytn/klaytn/blob/dev/storage/database/schema.go)
> Key에 Prefix를 붙인다 (이와 같은 방식은 계속 반복된다)

```shell
headerPrefix:  68
blockNum: 0000000000000000
blockHash: f484ef9414585f80efa4918c1d43859073556022a6394da54d4e86b5b485cf4a74
```

### 364. `db.WriteBlock(block)`

```go
// storage/database/db_manager.go
func (dbm *databaseManager) WriteBlock(block *types.Block) {
	dbm.cm.writeBodyCache(block.Hash(), block.Body())
	dbm.cm.blockCache.Add(block.Hash(), block)

	dbm.WriteBody(block.Hash(), block.NumberU64(), block.Body())
	dbm.WriteHeader(block.Header())
}
```

```go
[620000000000000000f484ef9414585f80efa4918c1d43859073556022a6394da54d4e86b5b485cf4a, c1c0]

db.WriteBlock(block)
- dbm.WriteBody(block.Hash(), block.NumberU64(), block.Body())
  - [key] blockBodyKey(blockNum, common.HexToHash(genesisBlockHash))
  - [value] rlp.EncodeToBytes(types.Body{Transactions: []*types.Transaction{}})


[48f484ef9414585f80efa4918c1d43859073556022a6394da54d4e86b5b485cf4a, 0000000000000000]

db.WriteBlock(block)
- dbm.WriteHeader(block.Header())
  - [key, value] db.Put(headerNumberKey(header.hash), common.Int64ToByteBigEndian(header.Number.Uint64()))


[680000000000000000f484ef9414585f80efa4918c1d43859073556022a6394da54d4e86b5b485cf4a, f90474a00000000000000000000000000000000000000000000000000000000000000000940000000000000000000000000000000000000000a0e7db9b40c2d12997cfca8f52c22c3e799513d47bce745ae66ac37494c7ca69d2a056e81f171bcc55a6ff8345e692c0f86e5b48e01b996cadc001622fb5e363b421a056e81f171bcc55a6ff8345e692c0f86e5b48e01b996cadc001622fb5e363b421b90100000000000000000000000000000000000000000000000000000000000000000000000000000000000000000000000000000000000000000000000000000000000000000000000000000000000000000000000000000000000000000000000000000000000000000000000000000000000000000000000000000000000000000000000000000000000000000000000000000000000000000000000000000000000000000000000000000000000000000000000000000000000000000000000000000000000000000000000000000000000000000000000000000000000000000000000000000000000000000000000000000000000000000000000000000000000180808466095a1e80b87c0000000000000000000000000000000000000000000000000000000000000000f85ad594b11659c1d3fba6c9191dae770e61faf0ec4e8072b8410000000000000000000000000000000000000000000000000000000000000000000000000000000000000000000000000000000000000000000000000000000000c0b901c4b901c17b22676f7665726e616e63652e646572697665736861696d706c223a302c22676f7665726e616e63652e676f7665726e616e63656d6f6465223a226e6f6e65222c22676f7665726e616e63652e676f7665726e696e676e6f6465223a22307830303030303030303030303030303030303030303030303030303030303030303030303030303030222c22676f7665726e616e63652e756e69747072696365223a302c22697374616e62756c2e636f6d6d697474656573697a65223a32312c22697374616e62756c2e65706f6368223a3630343830302c22697374616e62756c2e706f6c696379223a302c227265776172642e64656665727265647478666565223a66616c73652c227265776172642e6d696e696d756d7374616b65223a2232303030303030222c227265776172642e6d696e74696e67616d6f756e74223a2230222c227265776172642e70726f706f736572757064617465696e74657276616c223a333630302c227265776172642e726174696f223a223130302f302f30222c227265776172642e7374616b696e67757064617465696e74657276616c223a38363430302c227265776172642e75736567696e69636f656666223a66616c73657d808505d21dba00b860000000000000000000000000000000000000000000000000000000000000000000000000000000000000000000000000000000000000000000000000000000000000000000000000000000000000000000000000000000000000000000000000a00000000000000000000000000000000000000000000000000000000000000000]


db.WriteBlock(block)
- dbm.WriteHeader(block.Header())
  - [key, value] db.Put(headerKey(number, hash), rlp.EncodeToBytes(header))
```


### 365. `db.WriteReceipts(block.Hash(), block.NumberU64(), nil)`


```go
[720000000000000000f484ef9414585f80efa4918c1d43859073556022a6394da54d4e86b5b485cf4a, c0]

db.WriteReceipts(block.Hash(), block.NumberU64(), nil)
  - [key] blockReceiptsKey(genesisBlockNum, genesisBlockHash)
```


### 366. `db.WriteCanonicalHash(block.Hash(), block.NumberU64())`


```go
[6800000000000000006e, f484ef9414585f80efa4918c1d43859073556022a6394da54d4e86b5b485cf4a]

db.WriteCanonicalHash(block.Hash(), block.NumberU64())
- [key] headerHashKey(genesisBlockNum)
- [value] genesisBlockHash
```

### 367. `db.WriteHeadBlockHash(block.Hash())`


```go
[4c617374426c6f636b, f484ef9414585f80efa4918c1d43859073556022a6394da54d4e86b5b485cf4a]

db.WriteHeadBlockHash(block.Hash())
- db.Put(headBlockKey, hash.Bytes())
```

### 368. `WriteHeadHeaderHash`


```go
[4c617374486561646572, f484ef9414585f80efa4918c1d43859073556022a6394da54d4e86b5b485cf4a]

Commit()
- db.WriteHeadHeaderHash(block.Hash())
  - db.Put(headHeaderKey, hash.Bytes())
```


```go
[6b6c61792d636f6e6669672df484ef9414585f80efa4918c1d43859073556022a6394da54d4e86b5b485cf4a, 7b22636861696e4964223a313030302c22697374616e62756c436f6d70617469626c65426c6f636b223a302c226c6f6e646f6e436f6d70617469626c65426c6f636b223a302c22657468547854797065436f6d70617469626c65426c6f636b223a302c226d61676d61436f6d70617469626c65426c6f636b223a302c226b6f7265436f6d70617469626c65426c6f636b223a302c227368616e67686169436f6d70617469626c65426c6f636b223a302c2263616e63756e436f6d70617469626c65426c6f636b223a302c22647261676f6e436f6d70617469626c65426c6f636b223a302c226b6970313033436f6d70617469626c65426c6f636b223a302c226b6970313033436f6e747261637441646472657373223a22307830303030303030303030303030303030303030303030303030303030303030303030303030303030222c2272616e64616f436f6d70617469626c65426c6f636b223a302c2272616e64616f5265676973747279223a7b227265636f726473223a7b224b4950313133223a22307830303030303030303030303030303030303030303030303030303030303030303030303030343032227d2c226f776e6572223a22307862313136353963316433666261366339313931646165373730653631666166306563346538303732227d2c22697374616e62756c223a7b2265706f6368223a3630343830302c22706f6c696379223a302c22737562223a32317d2c22756e69745072696365223a302c22646572697665536861496d706c223a302c22676f7665726e616e6365223a7b22676f7665726e696e674e6f6465223a22307830303030303030303030303030303030303030303030303030303030303030303030303030303030222c22676f7665726e616e63654d6f6465223a226e6f6e65222c22676f76506172616d436f6e7472616374223a22307830303030303030303030303030303030303030303030303030303030303030303030303030303030222c22726577617264223a7b226d696e74696e67416d6f756e74223a302c22726174696f223a223130302f302f30222c2275736547696e69436f656666223a66616c73652c2264656665727265645478466565223a66616c73652c227374616b696e67557064617465496e74657276616c223a38363430302c2270726f706f736572557064617465496e74657276616c223a333630302c226d696e696d756d5374616b65223a323030303030307d7d7d]

db.WriteChainConfig(block.Hash(), config)
- db.Put(configKey(hash), data); // key: 6b6c61792d636f6e6669672df484ef9414585f80efa4918c1d43859073556022a6394da54d4e86b5b485cf4a
```

### eth.getBlock(`0)`

```shell
> eth.getBlock(0)
{
  baseFeePerGas: "0x5d21dba00",
  difficulty: "0x1",
  extraData: "0x",
  gasLimit: "0xe8d4a50fff",
  gasUsed: 0,
  hash: "0xf484ef9414585f80efa4918c1d43859073556022a6394da54d4e86b5b485cf4a",
  logsBloom: "0x00000000000000000000000000000000000000000000000000000000000000000000000000000000000000000000000000000000000000000000000000000000000000000000000000000000000000000000000000000000000000000000000000000000000000000000000000000000000000000000000000000000000000000000000000000000000000000000000000000000000000000000000000000000000000000000000000000000000000000000000000000000000000000000000000000000000000000000000000000000000000000000000000000000000000000000000000000000000000000000000000000000000000000000000000000000",
  miner: "0x0000000000000000000000000000000000000000",
  mixHash: "0x0000000000000000000000000000000000000000000000000000000000000000",
  nonce: "0x0000000000000000",
  number: 0,
  parentHash: "0x0000000000000000000000000000000000000000000000000000000000000000",
  randomReveal: "0x000000000000000000000000000000000000000000000000000000000000000000000000000000000000000000000000000000000000000000000000000000000000000000000000000000000000000000000000000000000000000000000000",
  receiptsRoot: "0x56e81f171bcc55a6ff8345e692c0f86e5b48e01b996cadc001622fb5e363b421",
  sha3Uncles: "0x1dcc4de8dec75d7aab85b567b6ccd41ad312451b948a7413f0a142fd40d49347",
  size: 1147,
  stateRoot: "0xe7db9b40c2d12997cfca8f52c22c3e799513d47bce745ae66ac37494c7ca69d2",
  timestamp: 1711888926,
  timestampFoS: 0,
  totalDifficulty: "0x1",
  transactions: [],
  transactionsRoot: "0x56e81f171bcc55a6ff8345e692c0f86e5b48e01b996cadc001622fb5e363b421",
  uncles: []
}
```

지금까지 위 데이터에 대한 chaindata를 살펴보았습니다.

# Transaction Broadcast Data 분석
> [0_genesis_setup.txt](https://github.com/junha-ahn/klaytn-geth-db-analysis/blob/main/extract/1_tx_broadcast.txt)

```shell

> eth.getBlock(1)
{
  baseFeePerGas: "0x5d21dba00",
  difficulty: "0x1",
  extraData: "0x",
  gasLimit: "0xe8d4a50fff",
  gasUsed: 0,
  hash: "0x8f82d5ac5647dd9696371b3cc558c0c0f9f74b02fdcf8468acfb1c7d096fe8e7",
  logsBloom: "0x00000000000000000000000000000000000000000000000000000000000000000000000000000000000000000000000000000000000000000000000000000000000000000000000000000000000000000000000000000000000000000000000000000000000000000000000000000000000000000000000000000000000000000000000000000000000000000000000000000000000000000000000000000000000000000000000000000000000000000000000000000000000000000000000000000000000000000000000000000000000000000000000000000000000000000000000000000000000000000000000000000000000000000000000000000000",
  miner: "0xb11659c1d3fba6c9191dae770e61faf0ec4e8072",
  mixHash: "0x6f8d94981b430fe90357e87ca1a048c36fc6137f34cda1f895063008705dd05a",
  nonce: "0x0000000000000000",
  number: 1,
  parentHash: "0xf484ef9414585f80efa4918c1d43859073556022a6394da54d4e86b5b485cf4a",
  randomReveal: "0xb1b5ab9b908365e8598fb2067f2dbcc524c2c0423c7f220b1b66a616b40bdd393595b6ebc96e760d37a95354aaabb870041560a102003d4918f028e4bb79aa5d3443b526b8835bd2b7814d3bc958ae24f63b6c58274da2b1a4d231d73fd2a87e",
  receiptsRoot: "0x56e81f171bcc55a6ff8345e692c0f86e5b48e01b996cadc001622fb5e363b421",
  sha3Uncles: "0x1dcc4de8dec75d7aab85b567b6ccd41ad312451b948a7413f0a142fd40d49347",
  size: 761,
  stateRoot: "0xe7db9b40c2d12997cfca8f52c22c3e799513d47bce745ae66ac37494c7ca69d2",
  timestamp: 1711889747,
  timestampFoS: 0,
  totalDifficulty: "0x2",
  transactions: [],
  transactionsRoot: "0x56e81f171bcc55a6ff8345e692c0f86e5b48e01b996cadc001622fb5e363b421",
  uncles: []
}
> eth.getBlock(2)
{
  baseFeePerGas: "0x5d21dba00",
  difficulty: "0x1",
  extraData: "0x",
  gasLimit: "0xe8d4a50fff",
  gasUsed: 21000,
  hash: "0x41d4ea0e80f6c91f8b6c8d26ee6937882c7bf88626d345a7b7864725ae010167",
  logsBloom: "0x00000000000000000000000000000000000000000000000000000000000000000000000000000000000000000000000000000000000000000000000000000000000000000000000000000000000000000000000000000000000000000000000000000000000000000000000000000000000000000000000000000000000000000000000000000000000000000000000000000000000000000000000000000000000000000000000000000000000000000000000000000000000000000000000000000000000000000000000000000000000000000000000000000000000000000000000000000000000000000000000000000000000000000000000000000000",
  miner: "0xb11659c1d3fba6c9191dae770e61faf0ec4e8072",
  mixHash: "0x4addef7500c8cc20cc79490b0f428c328d3b0bfa6def4e20e3ddc52b478df8c5",
  nonce: "0x0000000000000000",
  number: 2,
  parentHash: "0x8f82d5ac5647dd9696371b3cc558c0c0f9f74b02fdcf8468acfb1c7d096fe8e7",
  randomReveal: "0x868197d1d9d6539dcbecc35afae4130c8f928606be94b792aae63180394f9cbe907fbb05bef770c97c6a9c002faa7378102fbc7ce420d03dded3c88fb88c2ccdb8cf44861be7ce92c08bd4b1521029fe9e44ac430c4990637fd5b4d1732e4156",
  receiptsRoot: "0x056b23fbba480696b65fe5a59b8f2148a1299103c4f57df839233af2cf4ca2d2",
  sha3Uncles: "0x1dcc4de8dec75d7aab85b567b6ccd41ad312451b948a7413f0a142fd40d49347",
  size: 876,
  stateRoot: "0x5f33454c77feb4342d275cda4bbe2bbc48390926707243a0fe00d8b9397a85e3",
  timestamp: 1711889894,
  timestampFoS: 0,
  totalDifficulty: "0x3",
  transactions: ["0x95a13a5e23b815e732416e7f94d9958e0d312f1c1da6f893f547540c3b79bf49"],
  transactionsRoot: "0x571ddd2c39d6bb99f4c0057e1cabffb967c0c387c23072d2778a67d2dc4c6daf",
  uncles: []
}
> eth.getBlock(3)
null
```
> 2번 블록은 `0x95a13a5e23b815e732416e7f94d9958e0d312f1c1da6f893f547540c3b79bf49` Transaction이 포함되어 있습니다.

### DB Entry: Body

```diff
[620000000000000000f484ef9414585f80efa4918c1d43859073556022a6394da54d4e86b5b485cf4a, c1c0] 

# [1번 블록] dbm.WriteBody(block.Hash(), block.NumberU64(), block.Body())
+ [6200000000000000018f82d5ac5647dd9696371b3cc558c0c0f9f74b02fdcf8468acfb1c7d096fe8e7, c1c0]
# [2번 블록] dbm.WriteBody(block.Hash(), block.NumberU64(), block.Body())
+ [620000000000000002749d14765aa26772eda90064bcdf00ea2d2cfe328a6a141dde865012bffd2206, f872f870f86e80850ba43b7400825208948c53ffef58a4e677592354eba1f95b0ea777f96888016345785d8a0000808207f3a0b50e1b4cb415ad25430a92fbb4fdee0b67b3d461da64a91ef58ece34acd1e299a0118fc25940a88b993665613aaa52b3a67739a498e80362f05449ecdcf455c87b]
```

### DB Entry: Receipts

```diff
[720000000000000000f484ef9414585f80efa4918c1d43859073556022a6394da54d4e86b5b485cf4a, c0]

# [1번 블록] common.Bytes2Hex(blockReceiptsKey(blockNum, blockHash))
+ [7200000000000000018f82d5ac5647dd9696371b3cc558c0c0f9f74b02fdcf8468acfb1c7d096fe8e7, c0]
# [2번 블록] common.Bytes2Hex(blockReceiptsKey(blockNum, blockHash))
+ [720000000000000002749d14765aa26772eda90064bcdf00ea2d2cfe328a6a141dde865012bffd2206, f90141f9013e01b9010000000000000000000000000000000000000000000000000000000000000000000000000000000000000000000000000000000000000000000000000000000000000000000000000000000000000000000000000000000000000000000000000000000000000000000000000000000000000000000000000000000000000000000000000000000000000000000000000000000000000000000000000000000000000000000000000000000000000000000000000000000000000000000000000000000000000000000000000000000000000000000000000000000000000000000000000000000000000000000000000000000000000000000000000000000000a095a13a5e23b815e732416e7f94d9958e0d312f1c1da6f893f547540c3b79bf49940000000000000000000000000000000000000000c0825208]
```

### DB Entry: Txlookup

```diff
# db.Put(TxLookupKey(tx.Hash()), data);
+ [6c95a13a5e23b815e732416e7f94d9958e0d312f1c1da6f893f547540c3b79bf49, e3a0749d14765aa26772eda90064bcdf00ea2d2cfe328a6a141dde865012bffd22060280]
```

# 마치며

해당 글에서는 Klaytn Data가 실제로 어떻게 저장되는지를 필요한 내용 중심으로 살펴보았습니다.

더 자세한 내용은 [klaytn-geth-db-analysis](https://github.com/junha-ahn/klaytn-geth-db-analysis)를 참고해주세요.